:100000000CC0189518951895189518951895189569
:10001000189518951895189518958FE58DBFC8E314
:10002000E0E24E2E82E08EBFD2E0F2E05F2EEEEFF5
:10003000F1E0A0E6B0E088278D933197E9F786D309
:10004000662480E081BB80E084BB8FEF87BBD09AC1
:10005000D19AD298D3988EE181BD86E081BDE6E742
:10006000F0E080E4BBD358E0C895802DB1D3319641
:100070005A95D1F704C02004021F0204202080E01A
:1000800090E0A2E6B0E08D939C9380E090E0A4E63F
:10009000B0E08D939C9380E090E0A6E6B0E08D9375
:1000A0009C93D898D9983ED38CE098D33BD38FE7D4
:1000B00011E047D3E4E2F9E02FD381E080936000C0
:1000C000009160000F3010F009F012C08BB391E086
:1000D00089278BBB8BB392E089278BBB8AEF90E09B
:1000E000A9D3A0E6B0E08C918F5F8C9308F4E8CFA1
:1000F000D898D99817D38FE711E023D3ECE2F9E031
:100100000BD38CED95E096D30DD381B5886081BD7E
:1001100081E080936100009161000F3010F009F0E0
:100120005AC15DD1A2E6B0E00D911C91013050E0C2
:10013000150709F457C081E090E0A6E6B0E08D9382
:100140009C9382E390E076D38FE711E0FAD2A8E0A7
:10015000B2E0E1E6F0E0A0D3D7D28FE714E0F1D22D
:10016000A1E6B0E0AD90BB24A7E6B0E0AA0DBB1DB0
:100170000C91013010F009F001C011C0E4E3F9E086
:10018000CBD280E025D3A8E0B2E0E1E6F0E0A19098
:10019000BB24E7E6F0E0EA0DFB1D7ED3B5D2A1E675
:1001A000B0E0AD90BB24A7E6B0E0AA0DBB1D0C915A
:1001B000003009F003C0E8E3F9E0AED281E08093BB
:1001C000600000916000093010F009F00BC082E37C
:1001D00090E030D304D1A0E6B0E08C918F5F8C9397
:1001E00008F4EFCFA1E6B0E0AD90BB24A7E6B0E005
:1001F000AA0DBB1D0C91013081E009F080E08F93C6
:10020000A2E6B0E00D911C91013050E0150781E0AD
:1002100009F080E09F918923882309F42CC081E0B4
:1002200090E0A6E6B0E08D939C9382E390E002D349
:100230008FE711E086D2A8E0B2E0E1E6F0E02CD34F
:1002400063D28FE714E07DD2EEE3F9E065D281E07E
:100250008093600000916000093010F009F00BC03D
:1002600082E390E0E7D2BBD0A0E6B0E08C918F5F54
:100270008C9308F4EFCFA6E6B0E00D911C9101300D
:1002800050E0150709F099C081E08093600000916B
:1002900060000F3010F009F030C0A0E6B0E0AD9083
:1002A000BB24A7E6B0E0AA0DBB1D0C91013010F0F5
:1002B00009F001C009C0A0E6B0E0AD90BB24A7E6FC
:1002C000B0E0AA0DBB1D1CD2A0E6B0E0AD90BB24EF
:1002D000A7E6B0E0AA0DBB1D0C91013009F006C0E5
:1002E00081E090E0A2E6B0E08D939C93A0E6B0E0C0
:1002F0008C918F5F8C9308F4CACFA2E6B0E00D9189
:100300001C91003050E0150709F004C08BB392E057
:1003100089278BBBA2E6B0E00D911C91013050E023
:10032000150709F001C0D998A2E6B0E00D911C9123
:10033000013050E0150781E009F080E08F93A4E6DA
:10034000B0E00D911C91003050E0150781E009F0FC
:1003500080E09F918923882309F406C082E090E021
:10036000A4E6B0E08D939C93A4E6B0E00D911C91BF
:10037000003050E0150714F009F001C00AC0A4E6EF
:10038000B0E00D911C9101501040A4E6B0E00D9337
:100390001C93A4E6B0E00D911C91013050E01507CC
:1003A00009F001C0D89AA4E6B0E00D911C9100308C
:1003B00050E0150709F001C0D89880E090E0A6E66B
:1003C000B0E08D939C93AED1A1E6B0E08C918F5FAD
:1003D0008C9308F4A0CEA6D19BCEF894FFCFA9E3CE
:1003E000B0E00C9102FB81E00EF480E08F9300916D
:1003F0006800013081E009F480E09F91892388231F
:1004000009F403C085E180936800A9E3B0E00C9192
:1004100003FB81E00EF480E08F93009169000130CE
:1004200081E009F480E09F918923882309F403C0C7
:1004300085E180936900A3E3B0E00C9102FB81E0C9
:100440000EF480E08F9300916A00013081E009F49E
:1004500080E09F918923882309F403C085E180937C
:100460006A00A3E3B0E00C9103FB81E00EF480E0AE
:100470008F9300916B00013081E009F480E09F913F
:100480008923882309F403C085E180936B00A3E3EB
:10049000B0E00C9104FB81E00EF480E08F930091BA
:1004A0006C00013081E009F480E09F91892388236A
:1004B00009F403C085E180936C00A3E3B0E00C91E4
:1004C00005FB81E00EF480E08F9300916D00013018
:1004D00081E009F480E09F918923882309F403C017
:1004E00085E180936D00A3E3B0E00C9106FB81E011
:1004F0000EF480E08F9300916E00013081E009F4EA
:1005000080E09F918923882309F403C085E18093CB
:100510006E00A3E3B0E00C9107FB81E00EF480E0F5
:100520008F9300916F00013081E009F480E09F918A
:100530008923882309F403C085E180936F00A0E339
:10054000B0E00C9100FB81E00EF480E08F9300910D
:100550007000013081E009F480E09F9189238823B5
:1005600009F403C085E180937000A0E3B0E00C9132
:1005700001FB81E00EF480E08F9300917100013067
:1005800081E009F480E09F918923882309F403C066
:1005900085E180937100A0E3B0E00C9102FB81E063
:1005A0000EF480E08F9300917200013081E009F435
:1005B00080E09F918923882309F403C085E180931B
:1005C0007200A0E3B0E00C9103FB81E00EF480E048
:1005D0008F9300917300013081E009F480E09F91D6
:1005E0008923882309F403C085E180937300A0E385
:1005F000B0E00C9104FB81E00EF480E08F93009159
:100600007400013081E009F480E09F918923882300
:1006100009F403C085E180937400A0E3B0E00C917D
:1006200005FB81E00EF480E08F93009175000130AE
:1006300081E009F480E09F918923882309F403C0B5
:1006400085E180937500A0E3B0E00C9106FB81E0AA
:100650000EF480E08F9300917600013081E009F480
:1006600080E09F918923882309F403C085E180936A
:100670007600A895879943C080E090E0A2E6B0E0BC
:100680008D939C9381E080936000009160000F3017
:1006900010F009F011C080E0A0E6B0E0AD90BB24FE
:1006A000A7E6B0E0AA0DBB1D8C93A0E6B0E08C914C
:1006B0008F5F8C9308F4E9CF35D08FE711E041D0FC
:1006C000E4E4F9E029D081E08093600000916000CB
:1006D000093010F009F00BC082E390E0ABD0A89590
:1006E000A0E6B0E08C918F5F8C9308F4EFCF1AD026
:1006F00082E390E09FD080E080936100BCCD0895BC
:100700008C9181508C930895A8E0B2E08D9188235C
:1007100011F05ED0FBCF0895A1D0802D11F058D0FC
:10072000FBCF089581E05AD00ED080E857C08FE704
:10073000213039F08FEB223021F08FE8233009F09F
:100740008FEC810F4BC083E0992774C08AEF90E053
:1007500071D0B89AB99ABA9ABB9ABE9ABF9AC798FA
:1007600085E090E067D0C698C098C198C29AC39AB5
:10077000C69AEF93FF93E0E6F0E050D0FF91EF913F
:10078000C69855D0C69AEF93FF93E0E6F0E046D0C6
:10079000FF91EF91C6984BD0C69AEF93FF93E0E696
:1007A000F0E03CD0FF91EF91C69841D0C398C69A33
:1007B000EF93FF93E0E6F0E031D0FF91EF91C69820
:1007C00036D088E20BD08EE009D086E007D00895BD
:1007D000C79A829505D004D02AD00895C798F9CF3A
:1007E000859510F4C39A01C0C398859510F4C29AF8
:1007F00001C0C298859510F4C19A01C0C198859531
:1008000010F4C09A01C0C098C69AEF93FF93E0E637
:10081000F0E004D0FF91EF91C69808953197F1F779
:100820000895689462F80895E89462F8089581E064
:1008300090E000C0EF93FF93EE27E82BE92B31F017
:10084000E8EEF3E03197F1F70197D1F7FF91EF91DF
:10085000089501911191219130810895C8953196A3
:1008600000200895000F111F221F331F08950095C7
:100870001095209530950F5F1F4F2F4F3F4F0895D4
:10088000019110810BC0E5DF0BC00191108117FFB2
:1008900005C03FEF2FEF04C0008111272227332727
:1008A00037FF03C0E4DF8DE28D93CF92DF92EF92AA
:1008B000AA24BB24CC24DD24EE2440E2EAE0FF2776
:1008C00055E093E38081890F87FD9F7083FD907FC2
:1008D000891B81935A95A9F7C5DFAA1CBB1CCC1CA8
:1008E000DD1CEE1C4A9551F7E894EFE0FF2782915A
:1008F0000CD0EB30E0F71EF068948A2D0AD08827E0
:100900008D93EF90DF90CF900895982F829501D02E
:10091000892F8F70805D26F0803309F408956894E4
:100920008D9308954D534D552023320052756E6EB0
:10093000696E67004F6B0000236E2F6120004641F7
:0C094000494C21005265736574210000D1
:00000001FF
